{
    "contractName": "HelloWorld",
    "abi": [
        {
            "inputs": [],
            "name": "greet",
            "outputs": [
                {
                    "internalType": "string",
                    "name": "",
                    "type": "string"
                }
            ],
            "stateMutability": "view",
            "type": "function"
        },
        {
            "inputs": [],
            "name": "renderHelloWorld",
            "outputs": [
                {
                    "internalType": "string",
                    "name": "",
                    "type": "string"
                }
            ],
            "stateMutability": "pure",
            "type": "function"
        }
    ],
    "bytecode": "60c0604052600c60808190526b48656c6c6f20576f726c642160a01b60a090815261002d9160009190610040565b5034801561003a57600080fd5b50610114565b82805461004c906100d9565b90600052602060002090601f01602090048101928261006e57600085556100b4565b82601f1061008757805160ff19168380011785556100b4565b828001600101855582156100b4579182015b828111156100b4578251825591602001919060010190610099565b506100c09291506100c4565b5090565b5b808211156100c057600081556001016100c5565b600181811c908216806100ed57607f821691505b6020821081141561010e57634e487b7160e01b600052602260045260246000fd5b50919050565b6101ca806101236000396000f3fe608060405234801561001057600080fd5b50600436106100365760003560e01c8063942ae0a71461003b578063cfae321714610073575b600080fd5b60408051808201909152600a8152691a195b1b1bd5dbdc9b1960b21b60208201525b60405161006a9190610104565b60405180910390f35b61005d6000805461008390610159565b80601f01602080910402602001604051908101604052809291908181526020018280546100af90610159565b80156100fc5780601f106100d1576101008083540402835291602001916100fc565b820191906000526020600020905b8154815290600101906020018083116100df57829003601f168201915b505050505081565b600060208083528351808285015260005b8181101561013157858101830151858201604001528201610115565b81811115610143576000604083870101525b50601f01601f1916929092016040019392505050565b600181811c9082168061016d57607f821691505b6020821081141561018e57634e487b7160e01b600052602260045260246000fd5b5091905056fea26469706673582212201fe844356731829536e1811316f2b3f2b34f50f4b7720f9a3d4bd2302d48731c64736f6c634300080b0033",
    "sourcePath": "/home/jidamva/Documents/Learn SOlidity/contract.sol",
    "compiler": {
        "name": "solc",
        "version": "0.8.11+commit.d7f03943"
    },
    "functionHashes": {
        "greet()": "cfae3217",
        "renderHelloWorld()": "942ae0a7"
    },
    "gasEstimates": {
        "creation": {
            "codeDepositCost": "91600",
            "executionCost": "infinite",
            "totalCost": "infinite"
        },
        "external": {
            "greet()": "infinite",
            "renderHelloWorld()": "infinite"
        }
    }
}